{
  "_format": "hh-sol-artifact-1",
  "contractName": "WavePortal",
  "sourceName": "contracts/WavePortal.sol",
  "abi": [
    {
      "inputs": [],
      "stateMutability": "payable",
      "type": "constructor"
    },
    {
      "anonymous": false,
      "inputs": [
        {
          "indexed": true,
          "internalType": "address",
          "name": "from",
          "type": "address"
        },
        {
          "indexed": false,
          "internalType": "uint256",
          "name": "timestamp",
          "type": "uint256"
        },
        {
          "indexed": false,
          "internalType": "string",
          "name": "message",
          "type": "string"
        }
      ],
      "name": "NewWave",
      "type": "event"
    },
    {
      "inputs": [],
      "name": "getAllWaves",
      "outputs": [
        {
          "components": [
            {
              "internalType": "address",
              "name": "waver",
              "type": "address"
            },
            {
              "internalType": "string",
              "name": "message",
              "type": "string"
            },
            {
              "internalType": "uint256",
              "name": "timestamp",
              "type": "uint256"
            }
          ],
          "internalType": "struct WavePortal.Wave[]",
          "name": "",
          "type": "tuple[]"
        }
      ],
      "stateMutability": "view",
      "type": "function"
    },
    {
      "inputs": [],
      "name": "getTotalWaves",
      "outputs": [
        {
          "internalType": "uint256",
          "name": "",
          "type": "uint256"
        }
      ],
      "stateMutability": "view",
      "type": "function"
    },
    {
      "inputs": [
        {
          "internalType": "address",
          "name": "_address",
          "type": "address"
        }
      ],
      "name": "getWaveCount",
      "outputs": [
        {
          "internalType": "uint256",
          "name": "",
          "type": "uint256"
        }
      ],
      "stateMutability": "view",
      "type": "function"
    },
    {
      "inputs": [
        {
          "internalType": "address",
          "name": "",
          "type": "address"
        }
      ],
      "name": "lastWavedAt",
      "outputs": [
        {
          "internalType": "uint256",
          "name": "",
          "type": "uint256"
        }
      ],
      "stateMutability": "view",
      "type": "function"
    },
    {
      "inputs": [
        {
          "internalType": "string",
          "name": "_message",
          "type": "string"
        }
      ],
      "name": "wave",
      "outputs": [],
      "stateMutability": "nonpayable",
      "type": "function"
    },
    {
      "inputs": [
        {
          "internalType": "address",
          "name": "",
          "type": "address"
        }
      ],
      "name": "waveCounts",
      "outputs": [
        {
          "internalType": "uint256",
          "name": "",
          "type": "uint256"
        }
      ],
      "stateMutability": "view",
      "type": "function"
    }
  ],
  "bytecode": "0x60806040526200004f6040518060400160405280601e81526020017f416e20616c6368656d697374206a6f75726e657920696e746f207765623300008152506200007760201b620007d51760201c565b606444426200005f91906200017c565b6200006b9190620001e6565b600281905550620002dc565b62000117816040516024016200008e9190620002b8565b6040516020818303038152906040527f41304fac000000000000000000000000000000000000000000000000000000007bffffffffffffffffffffffffffffffffffffffffffffffffffffffff19166020820180517bffffffffffffffffffffffffffffffffffffffffffffffffffffffff83818316178352505050506200011a60201b60201c565b50565b60008151905060006a636f6e736f6c652e6c6f679050602083016000808483855afa5050505050565b6000819050919050565b7f4e487b7100000000000000000000000000000000000000000000000000000000600052601160045260246000fd5b6000620001898262000143565b9150620001968362000143565b9250828201905080821115620001b157620001b06200014d565b5b92915050565b7f4e487b7100000000000000000000000000000000000000000000000000000000600052601260045260246000fd5b6000620001f38262000143565b9150620002008362000143565b925082620002135762000212620001b7565b5b828206905092915050565b600081519050919050565b600082825260208201905092915050565b60005b838110156200025a5780820151818401526020810190506200023d565b60008484015250505050565b6000601f19601f8301169050919050565b600062000284826200021e565b62000290818562000229565b9350620002a28185602086016200023a565b620002ad8162000266565b840191505092915050565b60006020820190508181036000830152620002d4818462000277565b905092915050565b61159780620002ec6000396000f3fe608060405234801561001057600080fd5b50600436106100625760003560e01c806318c69afc14610067578063449d46c0146100975780635b2ae087146100b35780639a2cdc08146100e3578063a42a466314610101578063bd43a90814610131575b600080fd5b610081600480360381019061007c9190610ae0565b61014f565b60405161008e9190610b26565b60405180910390f35b6100b160048036038101906100ac9190610c87565b610167565b005b6100cd60048036038101906100c89190610ae0565b61055b565b6040516100da9190610b26565b60405180910390f35b6100eb610621565b6040516100f89190610b26565b60405180910390f35b61011b60048036038101906101169190610ae0565b61066c565b6040516101289190610b26565b60405180910390f35b610139610684565b6040516101469190610e7f565b60405180910390f35b60006020528060005260406000206000915090505481565b42610384600460003373ffffffffffffffffffffffffffffffffffffffff1673ffffffffffffffffffffffffffffffffffffffff168152602001908152602001600020546101b59190610ed0565b106101f5576040517f08c379a00000000000000000000000000000000000000000000000000000000081526004016101ec90610f61565b60405180910390fd5b42600460003373ffffffffffffffffffffffffffffffffffffffff1673ffffffffffffffffffffffffffffffffffffffff16815260200190815260200160002081905550600180600082825461024b9190610ed0565b925050819055506102916040518060400160405280600d81526020017f25732068617320776176656421000000000000000000000000000000000000008152503361086e565b600360405180606001604052803373ffffffffffffffffffffffffffffffffffffffff16815260200183815260200142815250908060018154018082558091505060019003906000526020600020906003020160009091909190915060008201518160000160006101000a81548173ffffffffffffffffffffffffffffffffffffffff021916908373ffffffffffffffffffffffffffffffffffffffff1602179055506020820151816001019081610349919061118d565b50604082015181600201555050606460025442446103679190610ed0565b6103719190610ed0565b61037b919061128e565b6002819055506103c26040518060400160405280601681526020017f52616e646f6d20232067656e6572617465643a2025730000000000000000000081525060025461090a565b6032600254116105085761040b6040518060400160405280600781526020017f257320776f6e21000000000000000000000000000000000000000000000000008152503361086e565b6000655af3107a4000905047811115610459576040517f08c379a000000000000000000000000000000000000000000000000000000000815260040161045090611331565b60405180910390fd5b60003373ffffffffffffffffffffffffffffffffffffffff168260405161047f90611382565b60006040518083038185875af1925050503d80600081146104bc576040519150601f19603f3d011682016040523d82523d6000602084013e6104c1565b606091505b5050905080610505576040517f08c379a00000000000000000000000000000000000000000000000000000000081526004016104fc90611409565b60405180910390fd5b50505b3373ffffffffffffffffffffffffffffffffffffffff167f5f7e16dc676677766a70e9c5628aa6c54ddb8b6e5188e2ae1e1f17f1ffbea7164283604051610550929190611462565b60405180910390a250565b60006105db6040518060400160405280601681526020017f2573206861732077617665642025642074696d65732100000000000000000000815250836000808673ffffffffffffffffffffffffffffffffffffffff1673ffffffffffffffffffffffffffffffffffffffff168152602001908152602001600020546109a6565b6000808373ffffffffffffffffffffffffffffffffffffffff1673ffffffffffffffffffffffffffffffffffffffff168152602001908152602001600020549050919050565b60006106646040518060400160405280601781526020017f5765206861766520256420746f74616c2077617665732100000000000000000081525060015461090a565b600154905090565b60046020528060005260406000206000915090505481565b60606003805480602002602001604051908101604052809291908181526020016000905b828210156107cc57838290600052602060002090600302016040518060600160405290816000820160009054906101000a900473ffffffffffffffffffffffffffffffffffffffff1673ffffffffffffffffffffffffffffffffffffffff1673ffffffffffffffffffffffffffffffffffffffff16815260200160018201805461073190610fb0565b80601f016020809104026020016040519081016040528092919081815260200182805461075d90610fb0565b80156107aa5780601f1061077f576101008083540402835291602001916107aa565b820191906000526020600020905b81548152906001019060200180831161078d57829003601f168201915b50505050508152602001600282015481525050815260200190600101906106a8565b50505050905090565b61086b816040516024016107e99190611492565b6040516020818303038152906040527f41304fac000000000000000000000000000000000000000000000000000000007bffffffffffffffffffffffffffffffffffffffffffffffffffffffff19166020820180517bffffffffffffffffffffffffffffffffffffffffffffffffffffffff8381831617835250505050610a45565b50565b61090682826040516024016108849291906114c3565b6040516020818303038152906040527f319af333000000000000000000000000000000000000000000000000000000007bffffffffffffffffffffffffffffffffffffffffffffffffffffffff19166020820180517bffffffffffffffffffffffffffffffffffffffffffffffffffffffff8381831617835250505050610a45565b5050565b6109a282826040516024016109209291906114f3565b6040516020818303038152906040527fb60e72cc000000000000000000000000000000000000000000000000000000007bffffffffffffffffffffffffffffffffffffffffffffffffffffffff19166020820180517bffffffffffffffffffffffffffffffffffffffffffffffffffffffff8381831617835250505050610a45565b5050565b610a408383836040516024016109be93929190611523565b6040516020818303038152906040527f0d26b925000000000000000000000000000000000000000000000000000000007bffffffffffffffffffffffffffffffffffffffffffffffffffffffff19166020820180517bffffffffffffffffffffffffffffffffffffffffffffffffffffffff8381831617835250505050610a45565b505050565b60008151905060006a636f6e736f6c652e6c6f679050602083016000808483855afa5050505050565b6000604051905090565b600080fd5b600080fd5b600073ffffffffffffffffffffffffffffffffffffffff82169050919050565b6000610aad82610a82565b9050919050565b610abd81610aa2565b8114610ac857600080fd5b50565b600081359050610ada81610ab4565b92915050565b600060208284031215610af657610af5610a78565b5b6000610b0484828501610acb565b91505092915050565b6000819050919050565b610b2081610b0d565b82525050565b6000602082019050610b3b6000830184610b17565b92915050565b600080fd5b600080fd5b6000601f19601f8301169050919050565b7f4e487b7100000000000000000000000000000000000000000000000000000000600052604160045260246000fd5b610b9482610b4b565b810181811067ffffffffffffffff82111715610bb357610bb2610b5c565b5b80604052505050565b6000610bc6610a6e565b9050610bd28282610b8b565b919050565b600067ffffffffffffffff821115610bf257610bf1610b5c565b5b610bfb82610b4b565b9050602081019050919050565b82818337600083830152505050565b6000610c2a610c2584610bd7565b610bbc565b905082815260208101848484011115610c4657610c45610b46565b5b610c51848285610c08565b509392505050565b600082601f830112610c6e57610c6d610b41565b5b8135610c7e848260208601610c17565b91505092915050565b600060208284031215610c9d57610c9c610a78565b5b600082013567ffffffffffffffff811115610cbb57610cba610a7d565b5b610cc784828501610c59565b91505092915050565b600081519050919050565b600082825260208201905092915050565b6000819050602082019050919050565b610d0581610aa2565b82525050565b600081519050919050565b600082825260208201905092915050565b60005b83811015610d45578082015181840152602081019050610d2a565b60008484015250505050565b6000610d5c82610d0b565b610d668185610d16565b9350610d76818560208601610d27565b610d7f81610b4b565b840191505092915050565b610d9381610b0d565b82525050565b6000606083016000830151610db16000860182610cfc565b5060208301518482036020860152610dc98282610d51565b9150506040830151610dde6040860182610d8a565b508091505092915050565b6000610df58383610d99565b905092915050565b6000602082019050919050565b6000610e1582610cd0565b610e1f8185610cdb565b935083602082028501610e3185610cec565b8060005b85811015610e6d5784840389528151610e4e8582610de9565b9450610e5983610dfd565b925060208a01995050600181019050610e35565b50829750879550505050505092915050565b60006020820190508181036000830152610e998184610e0a565b905092915050565b7f4e487b7100000000000000000000000000000000000000000000000000000000600052601160045260246000fd5b6000610edb82610b0d565b9150610ee683610b0d565b9250828201905080821115610efe57610efd610ea1565b5b92915050565b600082825260208201905092915050565b7f576169742031356d000000000000000000000000000000000000000000000000600082015250565b6000610f4b600883610f04565b9150610f5682610f15565b602082019050919050565b60006020820190508181036000830152610f7a81610f3e565b9050919050565b7f4e487b7100000000000000000000000000000000000000000000000000000000600052602260045260246000fd5b60006002820490506001821680610fc857607f821691505b602082108103610fdb57610fda610f81565b5b50919050565b60008190508160005260206000209050919050565b60006020601f8301049050919050565b600082821b905092915050565b6000600883026110437fffffffffffffffffffffffffffffffffffffffffffffffffffffffffffffffff82611006565b61104d8683611006565b95508019841693508086168417925050509392505050565b6000819050919050565b600061108a61108561108084610b0d565b611065565b610b0d565b9050919050565b6000819050919050565b6110a48361106f565b6110b86110b082611091565b848454611013565b825550505050565b600090565b6110cd6110c0565b6110d881848461109b565b505050565b5b818110156110fc576110f16000826110c5565b6001810190506110de565b5050565b601f8211156111415761111281610fe1565b61111b84610ff6565b8101602085101561112a578190505b61113e61113685610ff6565b8301826110dd565b50505b505050565b600082821c905092915050565b600061116460001984600802611146565b1980831691505092915050565b600061117d8383611153565b9150826002028217905092915050565b61119682610d0b565b67ffffffffffffffff8111156111af576111ae610b5c565b5b6111b98254610fb0565b6111c4828285611100565b600060209050601f8311600181146111f757600084156111e5578287015190505b6111ef8582611171565b865550611257565b601f19841661120586610fe1565b60005b8281101561122d57848901518255600182019150602085019450602081019050611208565b8683101561124a5784890151611246601f891682611153565b8355505b6001600288020188555050505b505050505050565b7f4e487b7100000000000000000000000000000000000000000000000000000000600052601260045260246000fd5b600061129982610b0d565b91506112a483610b0d565b9250826112b4576112b361125f565b5b828206905092915050565b7f547279696e6720746f207769746864726177206d6f7265206d6f6e657920746860008201527f616e2074686520636f6e7472616374206861732e000000000000000000000000602082015250565b600061131b603483610f04565b9150611326826112bf565b604082019050919050565b6000602082019050818103600083015261134a8161130e565b9050919050565b600081905092915050565b50565b600061136c600083611351565b91506113778261135c565b600082019050919050565b600061138d8261135f565b9150819050919050565b7f4661696c656420746f207769746864726177206d6f6e65792066726f6d20636f60008201527f6e74726163742e00000000000000000000000000000000000000000000000000602082015250565b60006113f3602783610f04565b91506113fe82611397565b604082019050919050565b60006020820190508181036000830152611422816113e6565b9050919050565b600061143482610d0b565b61143e8185610f04565b935061144e818560208601610d27565b61145781610b4b565b840191505092915050565b60006040820190506114776000830185610b17565b81810360208301526114898184611429565b90509392505050565b600060208201905081810360008301526114ac8184611429565b905092915050565b6114bd81610aa2565b82525050565b600060408201905081810360008301526114dd8185611429565b90506114ec60208301846114b4565b9392505050565b6000604082019050818103600083015261150d8185611429565b905061151c6020830184610b17565b9392505050565b6000606082019050818103600083015261153d8186611429565b905061154c60208301856114b4565b6115596040830184610b17565b94935050505056fea26469706673582212206f23788bfa3ca8950cd46a8b4929b9923fc04a56408655e43ceefb0f68d177a164736f6c63430008110033",
  "linkReferences": {},
  "deployedLinkReferences": {}
}